:020000040800F2
:1000000060070020CD0100089504000821040008C5
:1000100091040008FD0200089B0900080000000090
:1000200000000000000000000000000001060008C1
:10003000010300080000000009050008150700087A
:10004000E7010008E7010008E7010008E7010008F0
:10005000E7010008E7010008E7010008E7010008E0
:10006000E7010008E7010008E7010008E7010008D0
:10007000E7010008E7010008E7010008E7010008C0
:10008000E7010008E7010008E7010008E7010008B0
:10009000E7010008E7010008E7010008E7010008A0
:1000A000E7010008E7010008E7010008E701000890
:1000B000E7010008E7010008E7010008E701000880
:1000C000E7010008E7010008E7010008E701000870
:1000D000E701000879070008E7010008E7010008C8
:1000E000E7010008E7010008E7010008E701000850
:1000F000E7010008E7010008E7010008E701000840
:10010000E7010008E7010008E7010008E70100082F
:10011000E7010008E7010008E7010008E70100081F
:10012000E7010008E7010008E7010008E70100080F
:1001300000F002F800F03AF80AA090E8000C8244BF
:100140008344AAF10107DA4501D100F02FF8AFF29C
:10015000090EBAE80F0013F0010F18BFFB1A43F0A5
:1001600001031847E80B0000080C0000103A24BFF8
:1001700078C878C1FAD8520724BF30C830C144BF0C
:1001800004680C607047000000230024002500264E
:10019000103A28BF78C1FBD8520728BF30C148BFEA
:1001A0000B6070471FB51FBD10B510BD00F074F88F
:1001B0001146FFF7F7FF00F07BFC00F092F803B464
:1001C000FFF7F2FF03BC00F0EAFB0000094880479C
:1001D00009480047FEE7FEE7FEE7FEE7FEE7FEE729
:1001E000FEE7FEE7FEE7FEE704480549054A064B41
:1001F0007047000019070008310100086001002065
:1002000060070020600300206003002070470000AA
:100210004FF0013C50F8042B51F8043B9A4221D195
:10022000A2EB0C03934313EACC1317D150F8042B21
:1002300051F8043B9A4215D1A2EB0C03934313EA05
:10024000CC130BD150F8042B51F8043B9A4209D13E
:10025000A2EB0C03934313EACC13DBD04FF0000066
:10026000704700BFD01A01BAB1FA81F101F018014C
:1002700022FA01F0CB40C1F12001DBB2C0B2C01ABA
:100280002CFA01F3D11A914311EAC311E6D1704758
:100290007047704770477047754600F02BF8AE46C0
:1002A00005006946534620F00700854618B020B582
:1002B000FFF79AFFBDE820404FF000064FF000071F
:1002C0004FF000084FF0000B21F00701AC46ACE8FE
:1002D000C009ACE8C009ACE8C009ACE8C0098D466B
:1002E000704710B50446AFF300802046BDE81040CB
:1002F000FFF765BF00487047FC00002000BFFEE725
:1003000070472DE9F0410246002500260020002319
:100310000024002791F803C00CF00F0591F803C0EA
:100320000CF0100CBCF1000F03D091F802C04CEAA5
:10033000050591F800C0BCF1000F31D01468002011
:100340002BE04FF0010C0CFA00F3B1F800C00CEAFE
:1003500003069E4220D183004FF00F0C0CFA03F7E6
:10036000BC4305FA03FC4CEA040491F803C0BCF159
:10037000280F06D14FF0010C0CFA00FCC2F814C093
:100380000AE091F803C0BCF1480F05D14FF0010C11
:100390000CFA00FCC2F810C0401C0828D1D314602D
:1003A000B1F800C0BCF1FF0F34DD546800202EE02E
:1003B00000F1080C4FF0010808FA0CF3B1F800C086
:1003C0000CEA03069E4221D183004FF00F0C0CFA79
:1003D00003F7BC4305FA03FC4CEA040491F803C09C
:1003E000BCF1280F05D100F1080C08FA0CF8C2F88E
:1003F000148091F803C0BCF1480F07D100F1080C3C
:100400004FF0010808FA0CF8C2F81080401C0828C8
:10041000CED35460BDE8F0814161704701617047FF
:1004200000BFFEE708B50121102000F06FF84FF47F
:100430000050ADF8000010208DF8030003208DF867
:10044000020069460448FFF75CFF4FF40051024880
:10045000FFF7E4FF08BD00000010014008B50121CE
:10046000042000F053F8FF20ADF8000010208DF8B4
:10047000030003208DF8020069460448FFF741FF9E
:10048000FF210248FFF7CAFF08BD00000008014035
:1004900000BFFEE77047000070B5002100230F2267
:1004A000C47804B3154C246804F4E064C4F5E06433
:1004B000210AC1F10403CA40447804FA03F18478A4
:1004C0001440214309010E4C0678A155047804F02C
:1004D0001F050124AC4005786D11AD0005F1E02544
:1004E000C5F8004109E0047804F01F050124AC4080
:1004F000044D0678761145F8264070BD0CED00E0FD
:1005000000E400E080E100E07047000029B1064A05
:1005100092690243044B9A6104E0034A9269824360
:10052000014B9A61704700000010024030B5002175
:100530000022002400232D4D6D6805F00C0121B12F
:10054000042905D0082923D105E0294D056022E0C2
:10055000274D05601FE0254D6D6805F47012234D91
:100560006D6805F48034022505EB92421CB9214DDB
:10057000554305600BE01D4D6D6805F400351DB158
:100580001C4D5543056002E0194D5543056002E0DE
:10059000174D056000BF00BF144D6D6805F0F001F8
:1005A0000909154D6B5C0568DD4045600F4D6D68B0
:1005B00005F4E061090A104D6B5C4568DD4085601B
:1005C0000A4D6D6805F46051C90A0B4D6B5C4568B6
:1005D000DD40C560054D6D6805F44041890B074D50
:1005E0006B5CC568B5FBF3F5056130BD00100240DA
:1005F00000127A0000093D001E0000202E0000209D
:10060000704710B500F002F810BD00000CB50020D6
:10061000019000903348006840F480303149086010
:1006200000BF3048006800F4003000900198401C82
:100630000190009818B90198B0F5A06FF1D1294840
:10064000006800F4003010B10120009001E00020AB
:1006500000900098012843D12348006840F0100022
:10066000214908600846006820F003000860084639
:10067000006840F0020008601A4840681949486064
:100680000846406848600846406840F4806048601A
:100690000846406820F47C1048600846406840F4F2
:1006A000E81048600846006840F08070086000BFAD
:1006B0000C48006800F000700028F9D00948406834
:1006C00020F00300074948600846406840F00200F7
:1006D000486000BF0348406800F00C000828F9D1CA
:1006E0000CBD00000010024000200240042808D188
:1006F0004FF0E021096941F004014FF0E02211615F
:1007000007E04FF0E021096921F004014FF0E022F9
:10071000116170477047000010B51348006840F041
:1007200001001149086008464068104908400E4918
:100730004860084600680E4908400B4908600846B2
:10074000006820F4802008600846406820F4FE001D
:1007500048604FF41F008860FFF753FF4FF00060C0
:100760000449086010BD0000001002400000FFF8BE
:10077000FFFFF6FE08ED00E010B540F225511D48E0
:1007800000F04AF810B31B4800F002F9C4B21A484E
:10079000008800F40040C8B91748008800F4804081
:1007A00060B10A2C03D000201349088020E01248D1
:1007B000008840F400401049088019E00D2C06D153
:1007C0000D48008840F480400B49088010E00A483A
:1007D0000088C0F30D0009490C5407480088401CEC
:1007E0000549088008460088C72801DD00200880E8
:1007F00010BD0000003801401C0000203400002023
:1008000021B1828942F40052828104E082894DF64E
:10081000FF731A408281704770B50246002400239E
:100820000025002040F66A16B14200D100BFC1F396
:10083000421501F01F03012606FA03F3012D02D130
:100840009689334006E0022D02D1168A334001E03A
:10085000968A33400C12012606FA04F416883440B6
:1008600013B10CB1012000E0002070BDF0B50346CB
:10087000002400260025002040F66A17B94200D166
:1008800000BF1846C1F3421401F01F06012707FA02
:1008900006F5012C01D10C3004E0022C01D11030FE
:1008A00000E014301AB107682F43076002E00768C0
:1008B000AF430760F0BD00002DE9F04786B0054664
:1008C0000E460024A24600BFA1460027B08900B111
:1008D00000BF2F462C8A4CF6FF700440F08804437A
:1008E0002C82AC894EF6F3100440B088318908435D
:1008F000718908430443AC81AC8A4FF6FF40044041
:10090000B0890443AC8201A8FFF710FE1F4887425C
:1009100002D1DDF810A001E0DDF80CA0A88900F4F8
:10092000004040B10AEBCA0000EB0A1031684900F0
:10093000B0FBF1F807E00AEBCA0000EB0A103168DF
:100940008900B0FBF1F86420B8FBF0F00401200945
:10095000642101FB1089A88900F4004040B13220D5
:1009600000EBC900B0FBF1F000F00700044308E021
:10097000322000EB09106421B0FBF1F000F00F0011
:1009800004432C8106B0BDE8F08700000038014028
:1009900001468888C0F30800704700BFFEE70146A3
:1009A00000BF704710B500F04DF800F041F900F0BD
:1009B00067F800F05BF910BD10B500F043F800F0E7
:1009C00043F900F05DF800F05DF910BD10B56FF06F
:1009D0000400FFF78BFE0A4800680A49B0FBF1F0FB
:1009E000094908700846007800EB4001C1EBC010CF
:1009F0004FF6FF7101EAC0000449088010BD0000F5
:100A00000000002000127A001400002016000020D0
:100A100010B500F023F800F017F900F03DF800F0F1
:100A200031F910BD10B500F00DF800F00DF900F02F
:100A300033F800F01BF910BD10B500F003F800F01A
:100A400015F910BD10B502210348FFF7E7FC01219D
:100A50000148FFF7E1FC10BD0008014010B501217D
:100A60000348FFF7DBFC02210148FFF7D5FC10BD6E
:100A70000008014010B500F0E7F800F00DF810BDD7
:100A800010B520210348FFF7C9FC10210148FFF7EA
:100A9000C3FC10BD0008014010B510210348FFF74A
:100AA000BDFC20210148FFF7B7FC10BD0008014044
:100AB0000024FFF78BFF4FF4165000F0F7F8FFF714
:100AC000CDFCFFF7AFFC4FF400513148FFF7A4FC19
:100AD00000F0E4F85AE02F48008800F400400028B5
:100AE00054D02C48047800202B4908552BA12A48C3
:100AF000FFF78EFB08B9FFF78BFF29A12648FFF708
:100B000087FB08B9FFF74EFF27A12348FFF780FBBB
:100B100008B9FFF787FF26A11F48FFF779FB08B93F
:100B200000F076F824A11C48FFF772FB08B9FFF724
:100B3000A1FF23A11848FFF76BFB08B900F090F85C
:100B400021A11548FFF764FB08B9FFF775FF21A144
:100B50001148FFF75DFB08B900F064F820A10E48CA
:100B6000FFF756FB08B9FFF727FF20A10A48FFF758
:100B70004FFB08B900F042F81EA10748FFF748FBF9
:100B800008B900F08BF8002002490880A3E70000B4
:100B9000001001401C00002034000020676F00009E
:100BA0006261636B000000006C6566740000000009
:100BB00072696768740000006C656674476F0000B6
:100BC0007269676874476F006C6566744261636B35
:100BD0000000000072696768744261636B00000086
:100BE000636C6F636B77697365000000726576658F
:100BF0007273650073746F700000000010B5FFF72A
:100C00002DFF00F015F8FFF747FF00F02FF810BD9B
:100C100010B5FFF723FF00F00BF8FFF731FF00F0EE
:100C200031F810BD10B500F003F8FFF729FF10BD33
:100C300010B508210348FFF7F1FB04210148FFF735
:100C4000EBFB10BD0008014010B504210348FFF77D
:100C5000E5FB08210148FFF7DFFB10BD000801405C
:100C600010B5FFF7FBFE00F00DF810BD10B58021A8
:100C70000348FFF7D3FB40210148FFF7CDFB10BD30
:100C80000008014010B540210348FFF7C7FB802151
:100C90000148FFF7C1FB10BD0008014010B5FF215E
:100CA0000148FFF7BBFB10BD0008014010B586B03E
:100CB0000446012144F20400FFF728FC4FF40070C1
:100CC000ADF8140003208DF8160018208DF81700D9
:100CD00005A91C48FFF715FB4FF48060ADF8140020
:100CE00004208DF8170005A91648FFF70AFB2520F8
:100CF0008DF8000003208DF801008DF8020001201E
:100D00008DF803006846FFF7C7FB01940020ADF89B
:100D10000800ADF80A00ADF80C00ADF810000C208A
:100D2000ADF80E0001A90848FFF7C6FD012240F208
:100D300025510548FFF79AFD01210348FFF760FDA3
:100D400006B010BD00080140003801406C0D0008DD
:100D500000000020340000006C010008A00D000815
:100D6000340000202C0700008801000800A24A047B
:100D7000000000000000000001020304060708094B
:100D80000000000000000000000000000000010260
:100D90000304010203040607080902040608000010
:04000005080001CD21
:00000001FF
